{
  "_format": "hh-sol-artifact-1",
  "contractName": "Anchor",
  "sourceName": "contracts/Anchor.sol",
  "abi": [
    {
      "anonymous": false,
      "inputs": [
        {
          "indexed": true,
          "internalType": "string",
          "name": "day",
          "type": "string"
        },
        {
          "indexed": false,
          "internalType": "bytes32",
          "name": "root",
          "type": "bytes32"
        },
        {
          "indexed": true,
          "internalType": "address",
          "name": "sender",
          "type": "address"
        }
      ],
      "name": "RootAnchored",
      "type": "event"
    },
    {
      "inputs": [
        {
          "internalType": "bytes32",
          "name": "root",
          "type": "bytes32"
        },
        {
          "internalType": "string",
          "name": "day",
          "type": "string"
        }
      ],
      "name": "anchorRoot",
      "outputs": [],
      "stateMutability": "nonpayable",
      "type": "function"
    },
    {
      "inputs": [
        {
          "internalType": "string",
          "name": "",
          "type": "string"
        }
      ],
      "name": "rootByDay",
      "outputs": [
        {
          "internalType": "bytes32",
          "name": "",
          "type": "bytes32"
        }
      ],
      "stateMutability": "view",
      "type": "function"
    }
  ],
  "bytecode": "0x608060405234801561001057600080fd5b50610487806100206000396000f3fe608060405234801561001057600080fd5b50600436106100365760003560e01c806343079a5f1461003b578063e8f5a7cb1461006b575b600080fd5b6100556004803603810190610050919061029f565b610087565b6040516100629190610301565b60405180910390f35b610085600480360381019061008091906103a8565b6100b5565b005b6000818051602081018201805184825260208301602085012081835280955050505050506000915090505481565b82600083836040516100c8929190610438565b9081526020016040518091039020819055503373ffffffffffffffffffffffffffffffffffffffff168282604051610101929190610438565b60405180910390207fb617651e1f29e58fb7cbd6fd0d66b7a0291b54e91a67e2c0bc3acc3d0e74943c856040516101389190610301565b60405180910390a3505050565b6000604051905090565b600080fd5b600080fd5b600080fd5b600080fd5b6000601f19601f8301169050919050565b7f4e487b7100000000000000000000000000000000000000000000000000000000600052604160045260246000fd5b6101ac82610163565b810181811067ffffffffffffffff821117156101cb576101ca610174565b5b80604052505050565b60006101de610145565b90506101ea82826101a3565b919050565b600067ffffffffffffffff82111561020a57610209610174565b5b61021382610163565b9050602081019050919050565b82818337600083830152505050565b600061024261023d846101ef565b6101d4565b90508281526020810184848401111561025e5761025d61015e565b5b610269848285610220565b509392505050565b600082601f83011261028657610285610159565b5b813561029684826020860161022f565b91505092915050565b6000602082840312156102b5576102b461014f565b5b600082013567ffffffffffffffff8111156102d3576102d2610154565b5b6102df84828501610271565b91505092915050565b6000819050919050565b6102fb816102e8565b82525050565b600060208201905061031660008301846102f2565b92915050565b610325816102e8565b811461033057600080fd5b50565b6000813590506103428161031c565b92915050565b600080fd5b600080fd5b60008083601f84011261036857610367610159565b5b8235905067ffffffffffffffff81111561038557610384610348565b5b6020830191508360018202830111156103a1576103a061034d565b5b9250929050565b6000806000604084860312156103c1576103c061014f565b5b60006103cf86828701610333565b935050602084013567ffffffffffffffff8111156103f0576103ef610154565b5b6103fc86828701610352565b92509250509250925092565b600081905092915050565b600061041f8385610408565b935061042c838584610220565b82840190509392505050565b6000610445828486610413565b9150819050939250505056fea26469706673582212209b9ada2e47fb008091a8a754ae789001868fee3bbf13f68ab28d9f0537aba55364736f6c63430008140033",
  "linkReferences": {},
  "deployedLinkReferences": {}
}